:020000040800F2
:1000000048500220E1390008F9370008FB370008A2
:10001000FD370008FF370008013800080000000025
:10002000000000000000000000000000033800088D
:1000300005380008000000000738000809380008EB
:10004000053A0008093A00080D3A0008113A00087C
:10005000153A0008193A00081D3A0008213A00082C
:10006000253A0008293A00082D3A0008313A0008DC
:10007000353A0008393A00083D3A0008413A00088C
:10008000453A0008493A00080D3800084D3A000882
:10009000513A0008553A0008593A00081338000848
:1000A0005D3A0008613A0008653A0008693A0008BC
:1000B000273800082D380008333800086D3A00084A
:1000C000713A0008753A0008793A00087D3A00084C
:1000D000813A0008393800083F380008853A00089E
:1000E0005D380008893A00088D3A0008913A000806
:1000F000953A0008993A00089D3A0008A13A00088C
:10010000A53A0008A93A0008AD3A0008B13A00083B
:10011000B53A0008B93A0008BD3A0008C13A0008EB
:10012000C53A0008C93A0008CD3A0008D13A00089B
:10013000D53A0008D93A0008DD3A0008E13A00084B
:10014000E53A0008E93A0008ED3A0008F13A0008FB
:10015000F53A0008F93A0008FD3A0008013B0008AA
:10016000053B0008093B00080D3B0008113B000857
:10017000153B0008193B00081D3B0008000000006B
:10018000213B0008253B0008293B00082D3B0008C7
:10019000313B0008353B0008393B00083D3B000877
:1001A000413B0008453B0008493B000838B52DEDB0
:1001B0000A9BB0EE40CAF0EE60CAB0EE41DAF0EE53
:1001C00061DA53EC1C2B00F022F904460D4653EC87
:1001D0001D2B00F06FF800F067F80022DFF84436BE
:1001E00000F072FF0022DFF8403600F06DFF0022C1
:1001F000DFF8383601F042F841EC1A0B00F087FACC
:1002000002460B460020DFF84C1601F05BF941EC8A
:10021000100B01F0C9F900F041F800F038F8B0EE29
:10022000409AF0EE609AB0EE4C1AF0EE6C1AB0EE16
:100230004D0AF0EE6D0A01F03CFA9FED6DDBB0EE79
:1002400040CAF0EE60CA53EC1A2B00F033F80022DB
:10025000DFF8143600F038FF41EC110BB0EE41AA84
:10026000F0EE61AA00F024F841EC100B00F00FF85A
:1002700053EC102B51EC1C0B01F024F9B0EE491A91
:10028000F0EE691ABDEC0A9B41EC100B31BDB0EEEB
:100290004A1AF0EE6A1A01F00CBA0000B0EE40BA49
:1002A000F0EE60BA7047000022462B4600F00CBF0B
:1002B00053EC1B2B51EC1D0B01F004BADFF8AC150D
:1002C000014442F210734A680968521C92FBF3F32E
:1002D00042F2107000FB13228A4201D102207047C3
:1002E00003207047DFF884150844426800688242A2
:1002F00001D1002070470120704738B504460D46F3
:10030000FFF7DCFF02280BD0DFF8641500F026F8B9
:100310002946C2EB0212A018BDE8344001F0A4BA8D
:1003200031BD000010B54FEA0004FFF7DBFF40B914
:10033000DFF8244507A10622204601F0A1FA204655
:1003400010BDDFF8281500F009F8C2EB0212A01862
:1003500010BD000030203020310000006258521CD7
:1003600042F2107392FBF3F342F2107000FB13227F
:100370006250704780B52DED088BB0EE408AF0EEEC
:10038000608A9FED25ABB0EE419AF0EE619A53EC96
:10039000182B00F056FC41EC100BB0EE408AF0EE4A
:1003A000608A53EC192B00F04CFC41EC1A0B53EC17
:1003B000182B0020DFF8A41400F086FE53EC1A2B53
:1003C00041EC1B0B0020DFF8981400F07DFE41EC9F
:1003D0001A0BB0EE4B8AF0EE6B8AB0EE4A9AF0EE52
:1003E0006A9A00BF00F008F8BDEC088B01BD000060
:1003F0000000000000A05840B0EE480AF0EE680A85
:10040000B0EE491AF0EE691A704753EC102B51EC1C
:100410001C0B01F057B90000E17A14AE47E1DA3F56
:10042000F8B50830811000EB5172D210DFF8C448E3
:10043000DFF8C458DFF8C468DFF8AC7AA0EBC2007C
:10044000072820603AD8DFE800F004080C13171BD7
:100450001D2A00F03CF8002206E000F03DF80022E2
:1004600002E000F039F8012200F02DF801221CE032
:1004700000F032F8012215E000F02EF8012205E02C
:10048000002200E0012200F023F8002200F01BF817
:1004900000220821304601F0E8FA01220AE000F0CB
:1004A00016F8002200F00FF800220821304601F073
:1004B000DCFA00220421284601F0D7FA012001F0DD
:1004C000FDFA2068F2BD0121384601F0CEBA0122C2
:1004D0000221384601F0C9BA00220221384601F053
:1004E000C4BA000038B54FF40071DFF8040ADFF831
:1004F000044ADFF8F85901F0B2FA012805D168740E
:1005000001228021204601F0B0FA8021DFF8340B6F
:1005100001F0A5FA30B9687400222046BDE83840E1
:1005200000F045BD31BD00002DE9F04D2DED0C8BE7
:1005300000F068F9012808BF012D40F0B88030466E
:10054000FFF7F0FE00F014F901F0CCFA00F01CF90E
:100550000CE000F023F900F072F9C8E90001384618
:1005600004E000F0F6F8F4D100F062F9761E00F134
:10057000A78000F01DF904D0F8D3032DF1D005D3E6
:10058000F4E7895D30392164A164EFE7895D98ED76
:10059000029B2D2902D100F0D5F8E7E700F0FEF824
:1005A00000F04DF9C8E90201D9E700F0DDF8606418
:1005B000607C0128F9D0E07C30B940F2BD2600F023
:1005C000D3F8761E6064FAD10020E074D4E90023E9
:1005D00000F0A7F800F037F900F050F900F09BF8B0
:1005E00000F031F900F089F800F091F800F027F9F7
:1005F00001F082FA00F099F800F021F901F07CFA9C
:1006000000F0D1F803E000F0ABF800F099F8607C5E
:100610000028F8D0607C01286CD100F0A5F800F02B
:100620008FF8F7E702280AD105E000F09DF8606432
:10063000606D401C6065606DB0F5FA7FF5D1A06C0F
:1006400008B90021616500F0D9F800F0D3F884EC16
:10065000040BD4E9002300F064F800F0F4F800F093
:100660000DF900F058F800F0EEF800F046F800F050
:100670004EF800F0E4F801F03FFA00F056F800F010
:10068000DEF801F039FA6860632001F017FA03E040
:1006900000F066F800F054F8607C0028F8D0607C28
:1006A000012821D100F060F800F04AF8F7E7304661
:1006B000FFF718FE002808BF012D00F085F8E1E0E3
:1006C000A06CDFF8A05101289FED1B9B9FED43AB71
:1006D0009FED44CB9FED45BBA4D100F08FF800F017
:1006E00089F884EC040B63E72D2500F03DF86D1EBE
:1006F0006064FAD100F041F8E1E741EC1D0B84EDB4
:1007000002DB51EC1B0B53EC1C2B00F0DBBE53EC5B
:100710001A2B00F0D7BFD4E9022341EC1C0B84ED67
:1007200000CB51EC1B0B00F0CDBF286053EC1D2B10
:1007300051EC1A0B00F0C6BF0000000000407F40E3
:100740006064CFE65BEC19AB8BF00041C8E902A115
:10075000704704F1180298ED009B915D2D297047B8
:10076000606C401C60645BE6606C401E606457E631
:10077000014604F1180001F077B888ED008B88ED90
:10078000028B0020A0637047E06388ED008B88ED4A
:10079000028B0020A0640120E66B70473039216491
:1007A000484301F0C7B968604FF47A7001F086B928
:1007B00004F118018A5D202A02D16D1C761E0120E9
:1007C0000A274743012D704707D12074022127488B
:1007D000E174304400224260026070478EE3388E3C
:1007E000E338264000000000008046400000000082
:1007F0000080664088EC040BFFF7D8BC98EC040B33
:10080000FFF7B8BDDFF84C88DFF8E046DFF848684E
:100810009FED188B88ED008B88ED028B3046257C90
:10082000FFF760BD0000D9C020F3C2C000C8DE40A1
:1008300053EC192B83F00043C8E90023704753ECB5
:10084000192B00F041BCDFF80428DFF8043800F071
:1008500015BD00000000F03F60000020004062C0B5
:10086000000040403400004000006440F0490200B5
:10087000F4490200000000000000000053EC1C2BB3
:1008800000F022BCBDEC0C8BBDE8F08D2DE9F84FDB
:100890002DED0E8B8EB001F05FF900F0DEF900F067
:1008A00043FA00F0AAF90FF608001C21D0E9004530
:1008B000CDE9004502A8DFF8A44701F067F953200D
:1008C00004F130060021F0654FF0804944F61F60C6
:1008D0007066316680203067B16604F1880BC6F817
:1008E0005890584601F056F94FF48058CDF82480BE
:1008F00009A9584601F0FEFA584601F08EF9002188
:10090000009101915846694601F0A4FC60210291D2
:100910000022002104914FF4FA7A0692CDF80CA03F
:1009200002A9584601F06EFA042202A9584601F0C5
:1009300069FA584601F05FFDDFF81857DFF8200725
:1009400068624FF4E131A9620020E86228636863BD
:100950000C21E8632864A96305F1240001F0FAFD85
:1009600000F04BF90FF2507204F1C80700F049F99A
:10097000DFF8F006386042F2CF0179600022BA60F9
:1009800040F2E730F8603A61BA61384601F002F9A6
:1009900000F02DF9384601F01AF900F043F9302142
:1009A000029100220392049200F01CF900F025F954
:1009B0000FF20C7200F025F9DFF8AC06386440F253
:1009C000473179640020B8646321F9643865802177
:1009D000B96504F58477384601F0DCF800F007F9D2
:1009E000384601F0F4F800F01DF9012203920021CD
:1009F00002910491002200F0F5F86846102101F000
:100A0000C5F8DFF8680620604FF48031DFF8600633
:100A1000A0626160012000220121E0616061A260AA
:100A20002261217684F82020E262E2603270204662
:100A300001F076FF0420012100F068FA02F02EF8A0
:100A4000DFF83006B0614FF41651F16100203062DA
:100A50007062B0620C2130637063F16204F148008F
:100A600001F078FD00220021282002F05FF9282003
:100A700002F079F900220021262002F057F9262001
:100A800002F071F9DFF8F005DFF8606400214160E1
:100A900001600091584601F0CDF80421584601F05C
:100AA000C9F840F6C410C9F83400C9F838A09FED61
:100AB000948B95EC040BFFF75DFC85EC040BFFF7C2
:100AC00075FB00F0C2F8FFF7BEFE9FED8FCBFFF77E
:100AD000D5FED6E9022341EC1B0B86ED00BB00F0EE
:100AE000B8F8FFF7B0FE41EC1D0B86ED02DB51ECD0
:100AF000180B53EC1B2B00F0E5FC9FED85ABFFF7CB
:100B000006FE9FED859BFFF79AFE00F0F5FFC9F802
:100B10003400FFF70BFEFFF792FE00F0EDFF00F050
:100B200078F8384601F043F8002070749FED7CBBE4
:100B300054E0706C401E7064FFF772FC7064D4F86F
:100B40004801401CC4F84801D4F84801B0F5487F7A
:100B5000EFD10021C4F8481185ED02BB85ED00BB43
:100B600095EC040BFFF706FC85EC040BFFF71EFB6E
:100B700000F06BF8FFF767FE02460B4651EC1C0BCA
:100B800000F0A2FAD6E9022341EC1D0B86ED00DB52
:100B900000F05FF8FFF757FE41EC1E0B86ED02EB0D
:100BA00051EC180B53EC1D2B00F08CFC02460B464D
:100BB00000F047F800F03DF800F09EFFC9F834005F
:100BC00053EC1E2B00F03DF800F033F800F094FFDA
:100BD00000F01FF80120F074FFF7A6FCF07C02285B
:100BE000FAD1B1E7069202A9384601F0E7B8CDF88C
:100BF000248009A9384601F07DB909A8102100F028
:100C0000C5BFD2E90001CDE9000102A81C2100F016
:100C1000BDBFC9F83800012205F1100105F124001B
:100C200001F0D3BC0021009101913846694601F0E2
:100C300011BB02460B4651EC190B00F045BA53ECC0
:100C4000102B51EC1A0B00F03DBD86EC040BD6E9DD
:100C5000002351EC180B00F035BD80B592B006A80A
:100C6000302100F093FF01A8142100F08FFF002035
:100C700000904FF48033DFF80404016841F08051A4
:100C800001600021006800F0805000900098DFF8BB
:100C9000F0030091026842F44042026001220068C1
:100CA00000F44040009006A80099069202214FF4FB
:100CB00080020C910D9208214FF4A8720E910F92B0
:100CC0000221042207931091119202F077F8022179
:100CD0000291002203920F204FF4A0510190049141
:100CE0004FF480520592052101A802F0F9F913B0E2
:100CF00000BD0000D84B022000180240000C02404A
:100D000000000000008066400000000000804640B7
:100D10008EE3388EE33826400000000000407F401C
:100D200000000000000000002DE9F84F86B0684682
:100D3000142100F02BFF0024D248D34DDFF8B491EA
:100D4000DFF848B3DFF84883059448F204060168E9
:100D5000654C41F010010160026802F0100205923A
:100D6000002200F0CAF843F004030360016801F0B8
:100D7000040100F0C1F843F020030360016801F0B2
:100D8000200100F0B9F843F080030360016801F02E
:100D9000800100F0B1F843F001030360016801F045
:100DA000010100F0A9F843F002030360016801F0BB
:100DB000020100F0A1F843F040030360016801F074
:100DC00040010591059905924021036843F008030D
:100DD0000360006800F0080005900598284600F0C0
:100DE00044FE00220321204600F03FFE0022812124
:100DF000484600F03AFE00223146584600F035FEE3
:100E000000220821404600F030FE402100F085F825
:100E1000284600F041FD4FF400509E4900F076F85E
:100E200000F03AFD4FF40040009000219A4D0195EA
:100E300000F067F8802000900022029203920221C5
:100E40000191032204926946DFF850A2504600F057
:100E500023FD00224FF400770097029203920221B3
:100E60000191092204926946504600F015FD0321C4
:100E700000F053F8204600F00FFD8121009101227F
:100E800000210291039101926946484600F004FD59
:100E900001200321019000220391029200966946ED
:100EA000584600F0F9FC802100910195022100F0E4
:100EB00028F8009702227A490D480191029269466A
:100EC00000F0EAFC082100F028F8404600F0E4FCBD
:100ED00000220021172001F029FF172001F043FF15
:100EE00007B0BDE8F08F00000008024000000020BD
:100EF0000000024000040240059105990592036834
:100F0000704702912046694600F0C6BC00900191EE
:100F10000022029269462046704700910122019208
:100F20000021029103220392694670471CB55D4B74
:100F3000597C0246B2F5005F5B480ED139B90124F5
:100F40005C74012202B0BDE8104030E013BD0129FD
:100F5000FCD1002159740022F4E7B2F5007F40F281
:100F6000E93411D1012905D10021597400228021D1
:100F700000F07BFD002000900098A042E6DAFFF729
:100F8000B1FA0098401CF6E7802ADFD129B9012187
:100F900059740122802100F068FD00200090009823
:100FA000A042D3DAFFF79EFA0098401CF6E78021B2
:100FB00000F05BBD00682C49884208BFFFF792BA79
:100FC0007047000000682649884200D0704770B51D
:100FD000344C204E216D354D307C6854491CA07C2A
:100FE000216570B9022920D101200021A07421655A
:100FF0002A7868780A2313FB0202A2F50472A2631E
:1010000001E0012811D1206DA16B88420DD1002291
:10101000A2742A5422650CA1284602F037F910B9AF
:101020000120207401E000F009F8012206F110010E
:1010300006F12400BDE8704001F0C7BA2946064811
:10104000FFF75BB900080240310000007A008BFC1A
:10105000FA210940E04B0220940000208C4A022033
:10106000004400400004004000080040002001400F
:101070000100000F00100140844A02204038024065
:10108000007000403038024000100240001802405A
:10109000000C02400000311000001110001402404A
:1010A0000000211000000020000402407000002019
:1010B0000000000000000000000000000000000030
:1010C000000000000000000070B44FF0004591EAFD
:1010D000030F40F1FF816B40841A71EB030604D2C9
:1010E0006E40001BB141121973414FF4001C1CEB00
:1010F000410F34BF7CEB430683E00C0DA4EB135689
:10110000362E00F37C80012E45EAC32341DC43EAFE
:10111000525312BFD20292025B08240545EAC12154
:1011200041EA5051D2EBC020994125D407D1B0FA01
:1011300080F610FA06F162D00020203608E0B1FAFD
:1011400081F6B140C6F1200220FA02F21143B0400C
:101150004FEAF474B4EB465434F001064FEA7404D9
:101160000AD8D6F50016760D04F00044F04061FA76
:1011700006F25040F1404840C00A40EA415021F098
:10118000004128BF5FEA500550F1000044EBD12137
:1011900035E0DB0A45EAC121C90AB6F120050EDDBA
:1011A00042EA0242120CC5F1200603FA06F6EB40B1
:1011B00042EA06056D42984161F100010DE062FAD4
:1011C00006F5F240554063FA06FC82EA0C02F34051
:1011D0005A406D42904161EB030111F4801F05D12B
:1011E000641E620502D06D004041494121F4801126
:1011F000430875F1004350F1000041EB045170BC0D
:1012000070471CEB410F15D223F0004352EA43060E
:101210000BD04FEA4C0CBCEB410F04D80C0D661EF2
:10122000342EB7DDEBE7801A994150EA410608BF3A
:101230000021E4E708BF1CEB430F28BF6FF000015B
:10124000DDE730B4002513E050F8042BD30744BF8A
:10125000A9F101039A18091F042942F8045BFAD284
:1012600013468C0744BF15809B1CC90748BF1D70DF
:1012700050F8041B0029E7D130BC7047F0B540F2AC
:10128000FF7581EA030C0CF0004C15EA11541DBFE8
:1012900015EA1357AC42AF42E5E0BC41C1F313017C
:1012A000C3F31303801A994143F4801304D2641EDC
:1012B0004000494180185941C90241EA5051B1FBEF
:1012C000F3F603FB1611A2FB0675D7EBC020A9416C
:1012D00002D2761E80185941C90241EA5051B1FB31
:1012E000F3FE03FB1E11A2FB0E75D7EBC020A94134
:1012F00003D2AEF1010E80185941890241EA9051A2
:10130000760546EA8E2EB1FBF3F603FB1611A2FB1F
:101310000675D7EB8020A94102D2761E801859416C
:10132000C90241EA50514EEA060EB1FBF3F603FB47
:101330001611A2FB0675D7EBC020A94102D2761E7A
:1013400080185941C90241EA5051B1FBF3F703FB40
:101350001711A2FB0735D3EBC020A94167F10007A5
:101360000CBF004247F0010766F3D5274FEA1E3154
:10137000B80814F5806412DDBD0775F1004250EB2A
:101380000E5051EB045111F5801F5CBF41EA0C0176
:10139000F0BD4CF07F6141F0E0410020F0BDBD07A1
:1013A0006D0840EA0E5041F48011D4F10104B4F10B
:1013B00020060ADAC4F120060200E04001FA06F332
:1013C000E1401843B24015430EE0342C13DCC6F163
:1013D000200445EA40056D0820FA06F2154321FA7B
:1013E00006F0A1400D43002175F1004250F10000CC
:1013F00051EB0C01F0BD00205FEA0C01F0BDCFB94C
:1014000092185B41B3FA83F704BFB2FA82F6BF19B0
:101410000B3FB7F120062FBF02FA06F3BB40C7F11E
:10142000200622FA06F638BF3343BA401CB1E4194D
:10143000641E33E77F4231F00041B1FA81F404BF0A
:10144000B0FA80F6A4190B3CB4F120062FBF00FAC5
:1014500006F1A140C4F1200620FA06F638BF314358
:10146000A0403C1B1AE7AC421ABF05EA1357AF4233
:1014700012E050EA41061CBF52EA4306BFE750EAB9
:101480004107304661461CBF41EA0551F0BD52EAB2
:10149000430C08BFC143F0BD00204FF4001616EB0B
:1014A000410F98BF16EB430F08BF16EB410F24BF47
:1014B000C14305E016EB430F0CBF61464CEA0551F2
:1014C000F0BD000070B44FF0004591EA030F7FF5C6
:1014D00003AE6B40841A71EB030603D2001BB141CB
:1014E000121973414FF4001C1CEB410F34BF7CEB0D
:1014F000430442E00C0DA4EB1356352E4FDC45EAB5
:10150000C323DB0A45EAC121C912B6F120050DDD6E
:1015100063FA05F6EB4086EA0305124218BF45F070
:101520000105C01851F100010CD213E062FA06F572
:10153000F2405540F3415A40B340F3405A408018BE
:10154000594107D349085FEA30005FEA350528BFF3
:1015500045F0010501F58011420875F1004250F196
:10156000000041EB04514E0016F5001F70BC38BF5F
:1015700070470020090D090570471CEB410F10D280
:1015800052EA43060BD0BCEB410F05D80C0DAB4320
:10159000661E342EB6DD02E0AB438018594170BCA4
:1015A000704770BC7047000051EC100B00B500F0A4
:1015B00003F841EC100B00BD40F2FF7C0B0D4DD049
:1015C000634566D230B421EA035141F4801103F23D
:1015D000FD3C5FEA5C0C01D300184941890041EAF7
:1015E000907180004FF440140023E202D50AB1F557
:1015F000100107D46D081DD2091B64190018494158
:10160000491BF7D56D080AD20919641B0018494116
:10161000491BEFD56D08F7D301E0520817D0C01869
:1016200061419B1AAC4100184941801AA941F4D488
:1016300052080AD0C01AA1419B186C4100184941B8
:10164000801AA941E9D45208F4D15B1C6C416108AD
:101650004FEA330001EB0C5130BC704750EA0103F4
:10166000FBD030B4B1FA81F311B9B0FA80F41B1990
:101670000B3BB3F120042FBF00FA04F19940C3F1F2
:10168000200420FA04F438BF21439840D3F1010329
:101690009DE7634514BF50EA410CDEE711F5801F5A
:1016A000DBD8D943AFF300807047000041EC100B4A
:1016B00001BD80B553EC112B51EC100B01F0F0FD86
:1016C000F4E70000B0B581EA030C0CF0004C40F2E6
:1016D000FF7515EA11541DBF15EA1357AC42AF420E
:1016E00039E0E41923EA455343F48013C90241F079
:1016F000004141EA505EC7021100A7FB0202002828
:101700004FF00000EEFB01204FF00001E3FB07214A
:1017100018BF42F00102401800214941E3FB0E01CD
:10172000A4F580640F0302D252004041494154F1B4
:1017300001046CDD470872F1004250F1000051EBEA
:101740000451A1F580115CBF41EA0C01B0BD4CEA27
:1017500005510020B0BD05EA1357AC4214BFAF429B
:1017600041E050EA410E1CBF52EA430E02E06146DE
:101770000020B0BD24423C441BD15FEA070EF6D0E6
:10178000090302BF01460020AEF1140EB1FA81F741
:10179000AEEB070401FA07FE0C37C7F1200100FA8F
:1017A00007F7C8404EEA000E23EA455343F480137E
:1017B000A2E733F00043B3FA83F704BFB2FA82FE24
:1017C00077440B3FE41BB7F1200E2FBF02FA0EF354
:1017D000BB40C7F1200E22FA0EFE38BF43EA0E03CB
:1017E000BA40641C82E750EA410E14BF52EA430E2D
:1017F0006FF000014FF4001717EB430F8ABF194633
:1018000017EB410FB5E74CEA05510020B0BDD4F10C
:101810000104B4F120070FDAC4F12007520828BFF1
:1018200042F0010210FA07F501FA07F7E1BF2A4377
:10183000E0403843E1400FE0352C98DCC7F120044C
:1018400052EA400220FA07F218BF42F0010231FAD0
:1018500007F0A1400A43002172F1004250F100005C
:1018600051EB0C01B0BD00005FEA000C11F8012B38
:1018700000F8012B12B111F8012BF9E7604670470F
:101880004AB1000011F8013B521E00F8013B1CBF99
:1018900011F8013BF8E770472DE9F84F0D464FF07E
:1018A000000878490F22012304462E6803FA08F045
:1018B00000EA0609814540F0CA804FEA480C032639
:1018C00006FA0CF66FEA060E6E68012E18BF022E9D
:1018D00003D0112E18BF122E11D1A668EF680EEAA0
:1018E000060607FA0CF73E43A660666826EA000083
:1018F0006E68C6F3001606FA08F630436060E068CA
:10190000AE680EEA000006FA0CF63043E0604FEADB
:1019100088006E68022E18BF122E12D14FEAD80628
:1019200004EB860600F01C07D6F820A002FA07FB9D
:101930002AEA0B0AD5F810B00BFA07F747EA0A07AC
:10194000376226680EEA06072E7906F0030606FAC5
:101950000CF63E4326606E68F60078D500260096A9
:101960004FEA980C0E68DFF820E146F480460E60DE
:1019700000F00C000E6806F480460096009E5EF8AB
:101980002C7002FA00F627EA0606404FBC4208BF58
:1019900000272CD03E4FBC4208BF012727D03D4F27
:1019A000BC4208BF022722D03B4FBC4208BF0327DE
:1019B0001DD03A4FBC4208BF042718D0384FBC4254
:1019C00008BF052713D0374FBC4208BF06270ED0EB
:1019D000354FBC4208BF072709D0344FBC4208BF6F
:1019E000082704D0324FBC420CBF09270A2707FA48
:1019F00000F030434EF82C006FEA090C2D480668C1
:101A00000CEA060E6E68F70348BF49EA0E0EC0F8EE
:101A100000E046680CEA060E6E68B70348BF49EA64
:101A20000E0EC0F804E086680CEA060E6E68F70237
:101A300048BF49EA0E0EC0F808E0C6680CEA060E78
:101A40006E68B60248BF49EA0E0EC0F80CE008F115
:101A50000108B8F10F0F7FF628AFBDE8F18F0069DC
:101A6000084018BF0120C0B2704702B90904816163
:101A70007047114A136803421CBF1060FFF756BA43
:101A8000704700004438024008380140000002401E
:101A90000004024000080240000C02400010024016
:101AA0000014024000180240001C024000200240C6
:101AB00000240240003C0140143C014038B504467B
:101AC00001F08CFC14F1010F054602D004480178A6
:101AD000641801F083FC401BA042FAD331BD00BF63
:101AE0008400002000F1010310F8011B11B110F86F
:101AF000011BFBE7C01A7047C1F30A5340F2FE32E4
:101B00009B1A14DDD3F120034FEAE17208DDC9020C
:101B100041EA505141F00040D84080185040704791
:101B200003F2E13010B1D24382F000407047002050
:101B300070470000C11768B14840401AB0FA80F2FF
:101B40009040D21CC907C2F5846241EA025202EBFE
:101B5000D02140057047000080B50B48016841F472
:101B600000710160026842F480620260016841F421
:101B700080710160032001F0CCF8002001F034FCFA
:101B800000F0AEFB002002BD003C0240002201F04C
:101B90004BBC000038B5040001D1012032BD00F07B
:101BA00061F818B900F05AF800F0DFFB1BE000689C
:101BB000C16841F00101C160816801F00701062997
:101BC00003D0016841F0010101600020704738B581
:101BD000040001D1012032BD00F044F818B900F032
:101BE0003DF801F03AFC02206870211D206800F0E9
:101BF000DEF901206870002032BD03D1416C41F450
:101C000000414164816801F00701062903D00168A1
:101C100041F001010160002010BD38B5040001D180
:101C2000012032BD00F01EF818B900F017F801F0DD
:101C300015FCD8E710B500F007F800F00AF81CBF53
:101C4000DFF828209042D8E704460122206800F0FF
:101C5000F2BA2068DFF81810884270470021297016
:101C60002046704704F13C05687870470004014045
:101C70000000014010B50446206801698A0715D5A7
:101C8000C1688A0712D56FF0020101610122227733
:101C9000806910F0030F204602D001F0E0FB03E062
:101CA00001F0DEFB00F087F8002020772068016952
:101CB0004A0715D5C1684A0712D56FF004010161C2
:101CC00002222277806910F4407F204602D001F082
:101CD000C6FB03E001F0C4FB00F06DF800202077A4
:101CE000206801690A0715D5C1680A0712D56FF087
:101CF0000801016104222277C06910F0030F204619
:101D000002D001F0ACFB03E001F0AAFB00F053F8B5
:101D10000020207720680169CA0615D5C168CA0667
:101D200012D56FF01001016108222277C06910F40A
:101D3000407F204602D001F092FB03E001F090FBCF
:101D400000F039F80020207720680169CA0708D51B
:101D5000C168CA0705D56FF0010101612046FFF790
:101D600029F9206801690A0608D5C1680A0605D55F
:101D70006FF080010161204601F073FB206801696A
:101D80004A0608D5C1684A0605D56FF040010161D1
:101D9000204601F067FB206801698A060AD5C16800
:101DA0008A0607D56FF0200101612046BDE810408A
:101DB00001F059BB10BD204601F056BB38B500F10B
:101DC0003C042378012B01D1022032BD0123237072
:101DD000022565704AB1042A0BD0082A0DD00C2ABE
:101DE00004BF006800F0B9F90AE0006800F02AF9C1
:101DF00006E0006800F052F902E0006800F07EF9A9
:101E000000F0CFB870B500F063F801D1022070BDCA
:101E100000F06BF832B1042A17D0082A28D00C2A17
:101E200039D04AE03068294600F00CF93068816901
:101E300041F0080100F048F821F0040181613168A7
:101E40008A69286902438A6137E03068294600F0D0
:101E500025F93068816941F4006100F035F821F41A
:101E6000806100F031F82A6941EA0221816124E0B1
:101E70003068294600F042F93068C16941F0080134
:101E800000F01EF821F00401C1613168CA692869B7
:101E90000243CA6111E03068294600F05EF93068FB
:101EA000C16941F4006100F00BF821F4806100F099
:101EB00007F82A6941EA0221C16100F010F870BDFB
:101EC000C1613068C169704781613068816970475C
:101ED000064606F13C040D46207801287047012093
:101EE00060700021217000207047012020700221C5
:101EF0006170704738B500F04EF801D1022032BD54
:101F00000120207002226270DFF894022A68936830
:101F1000034093600868020018BF10282DD02028C5
:101F200018BF302829D0402823D0502816D0602848
:101F300018D0702803D0B0F5005F07D021E000F082
:101F400025F82868816841F0770105E000F01EF867
:101F50002868816841F48041816012E000F012F845
:101F600050210BE0CA684968286800F040F96021F8
:101F700004E000F007F8402100E00146286800F086
:101F800048F90EE0CA684968286821E1CB684A68C8
:101F90008968286845E1054605F13C042078012858
:101FA00070470120607000212170002032BDF0B523
:101FB0007C4C05687C4B7D4E7D4FDFF8F8C1A0421C
:101FC00018BFB0F1804F07D0604518BFB84203D0AA
:101FD000B04218BF98420DD14A6825F070051543EC
:101FE000A04218BFB0F1804F17D060451CBFB84267
:101FF000B04212D098421CBF6F4A90420DD06F4E33
:10200000B0421CBF6E4A904207D06E4EB0421FBF16
:102010006D4A90426D4EB04203D1CA6825F44075B6
:1020200015434A6925F0800515430560A0428D6877
:10203000C5620A68826212BF98420969016301227F
:102040004261F0BDF0B5026A564F5208520002627A
:10205000066A446885690B688A6825F0730526F06E
:1020600002061D431643504BB84218BF984207D191
:10207000CA6826F008061643B84226F0040601D0C6
:10208000984205D14B698A6924F440741C43144377
:1020900044608561496841630662F0BDF0B5026A3B
:1020A000404E22F010020262B042056A4368846921
:1020B0000A6824F4E64444EA02248A6825F02005EC
:1020C00045EA0215384A18BF904208D1CF6825F07A
:1020D000800545EA0715B04225F0400501D0904241
:1020E00006D14E698A6923F44063164343EA8603A6
:1020F00043608461496881630562F0BDF0B5026A9E
:1021000022F480720262056A4368C4698E680A68B4
:1021100025F4007524F0730445EA06251443214E86
:10212000214AB04218BF904208D1CF6825F400651B
:1021300045EA0725B04225F4806501D0904206D1DA
:102140004E698A6923F44053164343EA06134360F9
:10215000C4614968C1630562F0BD70B5026A114E81
:1021600022F480520262B042046A4268C3690D6878
:1021700023F4E64343EA05238D6824F4005444EA3B
:1021800005341CBF084DA84204D14D6922F4804299
:1021900042EA85124260C36149680164046270BD0D
:1021A0008800FFFF0000014000040140000C0040D7
:1021B000000800400004004000400140004401408D
:1021C0000048014000180040001C00400020004072
:1021D00010B5036A046A64086400046223F00A0309
:1021E000846924F0F00444EA021484612EE010B5FE
:1021F000036A23F0100303628369046A23F47043C3
:1022000043EA023324F0A004836144EA0114046227
:1022100010BD826822F07002114341F00701816015
:10222000704710B5846824F47F442143114341EA88
:102230000321816010BD10B501F01F01036A012464
:102240008C40A343036202FA01F1036A194301625D
:1022500010BD000070B500F13C031A78012A01D1CD
:10226000022070BD01221A7002245C7005686E683D
:10227000AC680A6826F0700616436E600268114862
:10228000824218BFB2F1804F11D00F4882421CBF6A
:102290000E4DAA420BD00E4882421CBF0D4DAA42E1
:1022A00005D00D4882421CBF0C4DAA4204D148689B
:1022B00024F08004044394600121597000201870B8
:1022C00070BD000000000140000400400008004014
:1022D000000C004000040140004001400018004094
:1022E00081B00020009000229148416841F4804173
:1022F0004160416801F480410091009900920368B7
:1023000043F080530360006800F080500090009814
:1023100001B0704738B586B000F089F82468854D63
:10232000AC4220D10020009000228348416941F452
:1023300080714161416901F48071009100990092BE
:102340001021036843F001030360032200F074F8D6
:1023500001A9FFF7A1FA00220021122000F0E6FCFB
:10236000122000F000FD07B030BD80B50068704954
:10237000B0F1804F11D1002000900A6842F00102B4
:102380000A600022086800F0010000900021009817
:102390001C2000F0CBFC1C2028E0694A904211D19F
:1023A000002000900A6842F002020A6000220868D9
:1023B00000F002000090002100981D2000F0B6FC03
:1023C0001D2013E05F4A904214D1002000900A685B
:1023D00042F004020A600022086800F00400009045
:1023E000002100981E2000F0A1FC1E20BDE8024044
:1023F00000F0B9BC01BD10B586B000F018F8246833
:10240000B4F1804F11D10020009002224A480168A7
:1024100041F001010160032100F00EF803220121C7
:102420000591049201A9FFF737FA06B010BD0446E2
:1024300001A81421FFF7AABB006800F0010000907A
:1024400000983E480191029200210391704710B517
:1024500086B0044668461421FFF798FB22683A4B81
:10246000364835499A4239D1002205924B6943F0EA
:1024700010034B6100234A6902F010020592059A8D
:1024800005930C6844F001040C600A6802F0010234
:102490000592059A05934FF480620C6844F002049B
:1024A0000C600223096801F0020100F034F80221F7
:1024B0000191002202924020032100900391072203
:1024C000049269462148FFF7E7F900220021252000
:1024D00000F02CFC252000F046FC1AE01C4B9A4230
:1024E00017D1002205920B6943F400330B610023DE
:1024F0000A6902F400320592059A05930C220C68D1
:1025000044F001040C600223096801F0010100F0AD
:1025100002F806B010BD05910599009201930022C2
:10252000029203230722039304926946FFF7B4B98A
:102530004038024000200140303802400000024094
:102540000004004000080040001001400004024068
:102550000044004038B5040001D1012032BD00F034
:1025600021F808B900F022F800F012F800F023F882
:10257000FFE7416100F001F832BD2068C16841F415
:102580000051C1600020686020216970A970704707
:10259000242068702068C16821F40051C160204681
:1025A00000F04BB904F138056878704700212970B4
:1025B0002046FFF74CBF2068016921F4904101617A
:1025C0002068416921F02A01704710B500F13803F5
:1025D0009C78202C22D109B1140001D1012010BD1A
:1025E0001C78012C1AD001241C7081628285C2855E
:1025F0000021596022229A7019700168CA6842F459
:102600008072CA6001684A6942F001024A6100684A
:10261000C16841F02001C160002010BD022010BD42
:10262000416921F040014161606B704738B5044653
:1026300025682968EA686B6911F00F0007D18806E0
:102640005FD593065DD52046BDE83240ACE0D807A3
:1026500002D412F4907F54D0C80705D5D50503D510
:10266000E06B40F00100E063480705D5DD0703D5C6
:10267000E06B40F00200E063880705D5DD0703D575
:10268000E06B40F00400E063080707D5950601D42D
:10269000D80703D5E36B43F00803E363E06B00283E
:1026A0006CD0880604D5910644BF204600F07CF823
:1026B00020684069E16B0A0701D440061BD520461B
:1026C00000F05DF8206841694A060FD5FFF7A8FFC2
:1026D00060B10FF2C9010165606B00F0C7FE002810
:1026E0004CD0606B016DBDE8344008472046BDE822
:1026F000324000F0CDBE204600F0CAFE0020E0636C
:1027000031BD08062AD5130628D594F839002128AA
:1027100034D1A068B0F5805F206A0BD10188C1F385
:102720000801696020690028206A0CBF811C411CD7
:10273000216203E0411C216200786860E08C401E49
:10274000E08480B2D0B92068C16821F08001C16006
:102750002068C16841F04001C16031BD48060DD517
:1027600051060BD5E86820F04000E860202184F88D
:1027700039102046BDE8324000F08BBE31BD016803
:10278000CA6822F49072CA6001684A69520852000D
:102790004A61202180F83A1070470000806B0021C8
:1027A000C185C18400F074BE80B590F83A1022292A
:1027B00041D18168B1F5805F12D101690368826AF5
:1027C0000029596805D1C1F308011180826A911C62
:1027D00004E001F0FF011180826A511C81620FE068
:1027E00001690029816A04D14A1C826203685A681F
:1027F00005E04A1C826203685A6802F07F020A7090
:10280000C18D491EC18589B299B90168CA6822F093
:102810002002CA600168CA6822F48072CA60016836
:102820004A69520852004A61202180F83A10FEF7A6
:10283000C9FB002002BD022002BDD0B506466427B8
:1028400032681169F06821F4405101431161192483
:10285000D3682D48B168034030690B437169034365
:10286000F0690B430343D3605169B06921F44071AF
:1028700001435161F36925482549B3F5004F1FD144
:102880008A4218BF824202D100F0B8FC01E000F099
:10289000ADFC0246A4FB02017268D30F520000F0A7
:1028A000F9FD00F037F8FF0032376420B7FBF0F095
:1028B000420002F4F87202EB011200F007001DE082
:1028C0008A4218BF824202D100F098FC01E000F079
:1028D0008DFC0246A4FB02017268930F920000F087
:1028E000D9FD00F017F83F0132376420B7FBF0F054
:1028F00000F0F00202EB011200F00F0031688018C6
:102900008860D0BD00000000F369FFFF00140140A3
:10291000001001406421B0FBF1F107FB1107704783
:1029200070B5044600250CB9012070BD04F13C06C9
:10293000706820B92046FFF7EDFCB560357070680F
:10294000C10610D4706820F4885040F00200706016
:10295000204600F047F9B560716821F0020141F0AE
:102960000101716000E0012500203070284670BD33
:1029700038B5044621680A684868920729D5800658
:1029800027D5226CD00603D4226C42F40072226454
:10299000886810F0405F04BF207E002812D1C86A0A
:1029A00010F4700F02D0886842050BD4486820F0FC
:1029B00020004860206C20F480702064206CC104EA
:1029C00000F066F8204600F0E8FD21686FF0120084
:1029D000086021680A684868520730D500062ED57D
:1029E000226CD00603D4226C42F400522264886820
:1029F00010F4401F1CD1886B10F4401F02D088686F
:102A0000420515D44868420512D4886810F0405F2A
:102A100004BF207E00280BD1486820F08000486069
:102A2000206C20F480502064206CC10500F030F848
:102A3000204600F0B3FD21686FF00C0008602068AC
:102A400002684168D2070FD549060DD50068C10755
:102A50000AD5206C40F480302064204600F09FFDB1
:102A600021686FF0010008602068026841689206E2
:102A70000DD549010BD5626C42F0020262646FF021
:102A800020050560204600F08BFD2068056031BD03
:102A900003D4206C40F001002064704778B50246F2
:102AA0000020009092F83C30012B01D1022072BD31
:102AB000012082F83C0007240B6810680A2B12D30F
:102AC0000A3BC56803EB43039C4025EA0404C46049
:102AD000C3680D688C68A5F10A0606EB4606B4408B
:102AE0002343C3600FE0056903EB430304FA03F3D8
:102AF00025EA0303036103690D688C6805EB45054E
:102B0000AC40234303611F244B68072B0CD25B1E90
:102B1000456B00F059F84463436B4D680C886E1E9A
:102B200000F04DF843631BE00D2B0CD2DB1F056B4F
:102B300000F04AF80463036B4D680C88EE1F00F048
:102B40003EF803630CE00D3BC56A00F03DF8C4623B
:102B5000C36A4D680C88A5F10D0600F030F8C36219
:102B6000604B984226D10C685D48122C07D103684F
:102B700023F400030360046844F4800404600B68D9
:102B80005B4CA34218BF112B14D1036823F48003BC
:102B90000360056845F4000505600868A04209D196
:102BA0005249514C0B68B3FBF4F40A20444300949F
:102BB00000F010F8002182F83C10002072BD06EBF6
:102BC0008606B4402343704703EB83039C4025EA09
:102BD0000404704702E00098401E0090009800280E
:102BE000F9D170473E4A116821F4403111601368F1
:102BF00041680B4313600268536823F48073536089
:102C00005168036941EA03215160516821F0407124
:102C10005160536881680B435360936823F40063E9
:102C200093609368C1680B4393603249836A8B4217
:102C300010D0936823F0706393609368816A0B43AC
:102C40009360936823F0405393609368C16A0B4389
:102C5000936007E0916821F070619160916821F0C4
:102C600040519160916821F0020191609168037E6A
:102C700041EA4301916090F82010002951680CD07E
:102C800041F400615160516821F460415160516824
:102C9000436A5B1E41EA433101E021F40061516067
:102CA000D16A21F47001D162D16AC3695B1E41EA25
:102CB0000351D162916821F400719160916890F89C
:102CC000303041EA43219160916821F48061916044
:102CD0009168406941EA80219160704700000000DE
:102CE000042301400020014040420F0090000020DA
:102CF000120000100100000F0901020002D429484F
:102D000081547047284B02F00F021A4402F8041C49
:102D10007047264B19684FF6FF020002114000F47D
:102D2000E0600843224908431860704738B51F4BDC
:102D30001C68C4F30223C3F10704052C28BF042434
:102D40001D1D072D34BF0023DB1E012505FA04F4E9
:102D5000641E2140994005FA03F35B1E1A4011439B
:102D6000BDE83440C8E7010007D4012200F01F018C
:102D7000104B8A40400943F82020704710B5401E90
:102D8000B0F1807F01D3012010BD0B4C60600F219A
:102D90004FF0FF30FFF7B0FF0021A1600720206057
:102DA000002010BD00E400E018ED00E00CED00E0B4
:102DB0000000FA0500E100E010E000E02DE9F84332
:102DC000040016D02078DFF80863C10713D5B06877
:102DD00000F00C00042807D0B06800F00C000828B0
:102DE0003ED1706841023BD53068810303D56068ED
:102DF000002800F0FF802078B64F810719D5B06811
:102E000010F00C0F07D0B06800F00C0008285CD15F
:102E10007068410259D43068810703D5E068012801
:102E200040F0E8803168206921F0F80141EAC001F2
:102E30003160217808076CD56069A749002862D005
:102E400001220A6000F0CAFA0546706F810700F19E
:102E5000D38000F0C3FA401B0228F6D9032034E1E6
:102E60006068B0F5803F04D1306840F48030306055
:102E700011E0B0F5A02F306806D140F4802030601A
:102E8000316841F4803105E020F4803030603168F1
:102E900021F480213160606858B100F09FFA054646
:102EA00030688103A7D400F099FA401B6528F7D356
:102EB000D4E700F093FA0546306881039BD500F013
:102EC0008DFA401B6528F7D3C8E7E06870B101218F
:102ED000396000F083FA05463068810700F1B88058
:102EE00000F07CFA401B0228F6D9B7E7386000F002
:102EF00075FA0546316888079BD500F06FFA401BCC
:102F00000228F7D9AAE7086000F068FA0546706F52
:102F1000810771D500F062FA401B0228F7D99DE7BE
:102F20000528306F06D140F004003067306F40F064
:102F3000010005E0400840003067306F20F00400D9
:102F4000306741F28938A06868B100F047FA8146DD
:102F5000306F810700F1898000F040FAA0EB090092
:102F60004045F5D37AE700F039FA8146306F8107A2
:102F70007BD500F033FAA0EB09004045F6D36DE7AE
:102F800000F02CFA401B022840F2828066E700F035
:102F900025FA001B022840F293805FE70020386684
:102FA00000F01CFA04463068810140F18D8000F089
:102FB00015FA001B0228F6D950E701281AD07068CC
:102FC000E26900F48001914202BF00F03F01226AF1
:102FD00091420FD147F6C071626A0140914202BF2F
:102FE00000F44031A26A914202BF00F07060E16AD1
:102FF000884269D0012068E0207841073AD5306CDA
:103000000025C1000AD400950125316C41F08051A2
:103010003164306C00F0805000900098DFF8BC8084
:10302000D8F80000C1051BD4D8F8000040F4807027
:10303000C8F8000000F0D2F98146D8F80000C105B8
:103040000ED400F0CBF9A0EB09000228F5D905E772
:103050003068216920F0F80040EAC1003060E8E6FD
:10306000A06801287FF45CAF60E71DB1306C20F0F0
:1030700080503064A06938B3B16801F00C010829B0
:103080009BD002288AD10020386600F0A7F90546B7
:10309000306881013FF574AFE269206A616A0243DA
:1030A000A06A400842EA8112401E42EA0042E06AF9
:1030B00042EA006272600121396600F08FF904462D
:1030C000306881017FF563AF0020BDE8F28300BF67
:1030D0000038024000004742800E47420070004026
:1030E0002DE9F04104000F4678D0494E306800F0D9
:1030F0000F00B84202D200F073F86FD12068454D3E
:10310000810712D5400703D5A96841F4E051A960B1
:103110002078010703D5A86840F46040A860A9683A
:10312000A06821F0F0010143A9602178C8074DD5BE
:103130006068012802D129688A0305E0022818BFC7
:10314000032803D129688A0103D447E029688A0744
:1031500044D5A968890840EA8100A86000F03EF9DA
:103160008046A868616800F00C00B0EB810F2DD09C
:1031700000F034F9A0EB080041F289318842F0D325
:10318000032021E02078410705D5AA68E06822F4F1
:10319000E0520243AA602178080706D5A968206991
:1031A00021F4604141EAC001A96000F03FF8AA683B
:1031B00019491A4BC2F30312895CC84018601848B9
:1031C000006800F011F90020BDE8F081306800F0DF
:1031D0000F008742D6D200F003F8D3D00120F3E7E6
:1031E0003770316801F00F01B94270470B480D4A42
:1031F000006813680C49C3F3822206E00748094AB5
:10320000006813680849C3F34232895CC8407047BC
:10321000003C0240003802401C39000890000020A9
:103220008C00002008380240FC39000830B5144CEE
:10323000606800F00C00042802D0082802D01DE0CD
:10324000104830BD226820680023410202F03F028E
:1032500004D525680B49C5F3881003E020680A49A6
:10326000C0F38810A1FB000100F014F92168C1F33C
:103270000141491C4900B0FBF1F030BD024830BDAE
:103280000438024000127A000024F40010F8012BE8
:1032900011F8013B0AB19A42F8D0D01A70470000E9
:1032A00010B52DED048B41EC180B43EC192B51ECB0
:1032B000190B48004015401C3AD051EC180B48003F
:1032C0004015401C34D0C80F08D021F0004053EC0A
:1032D000182B034643EC182B082400E0002451EC83
:1032E000190BC80F08D021F0004053EC192B0346EE
:1032F00043EC192B84F0060451EC190B53EC182BFA
:1033000000F050F904D2FDF7B9FF41EC100B4EE08C
:1033100031F0004104BF00289FED2C0B49D051EC47
:10332000180B53EC192BFDF7A9FF41EC100B40E0F3
:1033300051EC180B48004015401C04D1090318BF7C
:1033400051EC180B3ED151EC190B48004015401CB4
:1033500004D1090318BF51EC190B33D151EC190BEF
:1033600048004015401C0CD109030AD151EC180B40
:1033700048004015401C04D1090308BF9FED150B00
:1033800001D09FED120B51EC180BC80F14BF08248D
:10339000002451EC190BC80F18BF84F0060451EC3F
:1033A000180B48004015401C03D1090301D184F0DB
:1033B0000204BDEC048B2246BDE8104051EC100B1A
:1033C00000F008B9BDEC048B10BD00BF0000000088
:1033D00000000000000000000000F03F01484068CD
:1033E000704700BF8400002038B50D4D0D4B2A7882
:1033F00004464FF47A711868B1FBF2F2B0FBF2F0B8
:10340000FFF7BCFC50B9102C08D2002221464FF027
:10341000FF30FFF78BFCAC60002032BD012032BDD5
:10342000840000209000002000B500BF13009646E5
:103430009446103928BFA0E80C50FAD85FEA417CC6
:1034400028BF0CC048BF40F8042BC90728BF20F88C
:10345000022B48BF00F8012B00BD70477047704732
:1034600070477047704770477047000090F83510FC
:10347000022903D08022426501207047052180F88F
:103480003510006802685208520002600020704740
:1034900070477047D3BBD9B1B2F5803F5BD2022AE7
:1034A0001ED98C46B1FBF2F102FB11C31B0443EAA7
:1034B0001043B3FBF2FC02FB1C3380B240EA03432F
:1034C000B3FBF2F002FB103240EA0C4000237047DD
:1034D000022A05D98446B0FBF2F002FB10C2704705
:1034E0004AB105D100F0010249085FEA3000704797
:1034F00000220023704700F055B90B0002000021A4
:1035000000207047F7D3002200237047904271EBF0
:10351000030CF2D370B5B1FA81F4B3FA83F52C1B26
:10352000A340C4F1200532FA05F63343A2405FF010
:103530000046E64002E05B085FEA3202841A71EB63
:10354000030524BF204629467641F4D302000B0030
:103550003000002170BD70B5B1FA81F4B2FA82F585
:10356000C4F120046419B4F12006DAD3B2405FF04C
:103570000044F440002502E052085FEA3303C61A13
:1035800071EB020E24BF3046714664416D41F3D3A6
:1035900002000B002000290070BD70477047704783
:1035A000704700004FF4001C1CEB410F94BF1CEB54
:1035B000430F09E041EA030C50EA4C0C52EA0C0CB0
:1035C00003D2994208BF9042704714BF8B42824297
:1035D00070470000D0B52DED048B41EC180B14465C
:1035E00053EC182B00206E4900F0DEF808BF9FED69
:1035F000578B00F0838051EC180B564A564B00F065
:10360000E3F81DD89FED559B53EC182B51EC190B8B
:10361000FEF758F80022534BFDF756FD06460F46BD
:1036200053EC182B51EC190BFDF74EFD02460B46DF
:1036300030463946FDF722FE41EC180B44F00104F8
:1036400051EC180B21F0004101224FF0795300F0AA
:10365000BBF853D853EC182B51EC180BFEF732F88B
:1036600041EC190B53EC182BFEF72CF806460F46CD
:1036700053EC192B3C483D49FEF724F83C4A3D4B9E
:10368000FDF722FD53EC192BFEF71CF83A4A3B4B91
:10369000FDF71AFD32463B46FEF714F853EC182BA3
:1036A000FDF712FD06460F4653EC192B34483549F9
:1036B000FEF708F8344A354BFDF706FD53EC192B9D
:1036C000FEF700F8324A334BFDF7FEFC53EC192BA2
:1036D000FDF7F8FF304A314BFDF7F6FC53EC192BA0
:1036E000FDF7F0FF00222E4BFDF7EEFC02460B46E5
:1036F00030463946FDF7C2FD41EC180BA00705D551
:1037000051EC180B81F0004141EC180B14F007024A
:103710000CD00D4B7B44303303EBC20251EC180B41
:1037200053681268FDF7D0FC41EC180B200705D553
:1037300051EC180B81F0004141EC180B51EC180BC7
:10374000BDEC048BD0BD00BF40010000182D4454D7
:10375000FB21E93F57CD9E5E1426D13FAA4C58E885
:103760007AB6FB3F0000F0BF845D57134B57B03F64
:10377000B2934C19ED5EE43FBEDE02B90240F83F61
:10378000DE39028FC7C0743F8AAB1283000CC83F7A
:1037900024D7E508B6D8F03F0F34580E5895FD3FB2
:1037A0000000F03F7047000090420CD141EA030C4A
:1037B00050EA4C0C07D0994205D14FF4001C1CEB89
:1037C000410F38BF894270474FF4001C1CEB410F7A
:1037D00094BF1CEB430F09E041EA030C50EA4C0C88
:1037E00052EA0C0C03D28B4208BF8242704714BFCE
:1037F00099429042704700007047FEE7FEE7FEE7FF
:10380000FEE770477047704700F034B80D48FFF787
:10381000AFB880B58020FEF72CF9BDE802404FF428
:103820000070FEF726B90848FEF724BA0748FEF7ED
:1038300021BA0748FEF71EBA0648FEF7F7BE06484B
:10384000FEF7F4BE8C4A0220144B0220544B022097
:10385000944B0220D44A0220044C022080B54FF43D
:103860000050FEF706F9BDE802404FF40040FEF7B5
:1038700000B900000248416802788A184260704727
:103880008400002000000000000000000000000094
:1038900066732D3852C1E03F182D4454FB21F93F87
:1038A00066732D3852C1F03F182D4454FB21F93F67
:1038B00066732D3852C10040182D4454FB21094035
:1038C0003FD038C6A6F1044030B50168846842187C
:1038D000416802EB5103C9070BD54C4409E012F9CA
:1038E000011B12F8015B002904F8015B05D5491C96
:1038F000F9D19A42F3D10C3030BD491EF1D5F8E729
:103900000448054A016841F4700101604FF000600D
:103910001060704788ED00E008ED00E00000000056
:1039200000000000010203040607080910B507495A
:1039300079441831064C7C44163404E00A68081DAA
:10394000114488470146A142F8D110BD2C00000067
:10395000480000004EF68851CEF20001086840F49D
:1039600070000860BFF34F8FBFF36F8F4FF0007090
:10397000E1EE100A70470000CBD8FFFFB04B020009
:10398000940000200000000041FFFFFFC001000084
:10399000540000000000002000F00DF8002801D0C5
:1039A000FFF7C4FFAFF300800020AFF30080FCF707
:1039B0006DFF00F002F80120704700F001B8000030
:1039C0000746384600F002F8FBE7000080B5AFF389
:1039D0000080024A11001820ABBEFBE7260002005F
:1039E000014880470148004701390008F1390008C3
:1039F000AFF30080FFF7AEFFFFF7CEFF000000003F
:103A000001020304FFF7FEBFFFF7FEBFFFF7FEBF93
:103A1000FFF7FEBFFFF7FEBFFFF7FEBFFFF7FEBFDA
:103A2000FFF7FEBFFFF7FEBFFFF7FEBFFFF7FEBFCA
:103A3000FFF7FEBFFFF7FEBFFFF7FEBFFFF7FEBFBA
:103A4000FFF7FEBFFFF7FEBFFFF7FEBFFFF7FEBFAA
:103A5000FFF7FEBFFFF7FEBFFFF7FEBFFFF7FEBF9A
:103A6000FFF7FEBFFFF7FEBFFFF7FEBFFFF7FEBF8A
:103A7000FFF7FEBFFFF7FEBFFFF7FEBFFFF7FEBF7A
:103A8000FFF7FEBFFFF7FEBFFFF7FEBFFFF7FEBF6A
:103A9000FFF7FEBFFFF7FEBFFFF7FEBFFFF7FEBF5A
:103AA000FFF7FEBFFFF7FEBFFFF7FEBFFFF7FEBF4A
:103AB000FFF7FEBFFFF7FEBFFFF7FEBFFFF7FEBF3A
:103AC000FFF7FEBFFFF7FEBFFFF7FEBFFFF7FEBF2A
:103AD000FFF7FEBFFFF7FEBFFFF7FEBFFFF7FEBF1A
:103AE000FFF7FEBFFFF7FEBFFFF7FEBFFFF7FEBF0A
:103AF000FFF7FEBFFFF7FEBFFFF7FEBFFFF7FEBFFA
:103B0000FFF7FEBFFFF7FEBFFFF7FEBFFFF7FEBFE9
:103B1000FFF7FEBFFFF7FEBFFFF7FEBFFFF7FEBFD9
:103B2000FFF7FEBFFFF7FEBFFFF7FEBFFFF7FEBFC9
:103B3000FFF7FEBFFFF7FEBFFFF7FEBFFFF7FEBFB9
:103B4000FFF7FEBFFFF7FEBFFFF7FEBFED0000016E
:103B5000FC00043020302031BD0004302030203102
:103B6000F500043020302030F1000001F900001091
:063B7000FC000224F40039
:04000005080039F1C5
:00000001FF
